:020000040000FA
:10000000384000204D1B0000235D0000391B00001C
:10001000391B0000391B0000391B0000391B000090
:10002000000000000000000000000000F11B0000C4
:10003000391B000000000000391B0000391B0000C4
:100040006D1D00006D1D00006D1D00006D1D000088
:100050006D1D00006D1D00006D1D00006D1D000078
:100060006D1D00006D1D00006D1D00006D1D000068
:100070006D1D00006D1D00006D1D00006D1D000058
:100080006D1D00006D1D00006D1D00006D1D000048
:100090006D1D00006D1D00006D1D00006D1D000038
:1000A0006D1D00006D1D00006D1D00006D1D000028
:1000B0006D1D00006D1D00006D1D00006D1D000018
:1000C0006D1D00006D1D00006D1D00006D1D000008
:1000D0006D1D00006D1D00006D1D00006D1D0000F8
:1000E0006D1D00006D1D00006D1D00006D1D0000E8
:1000F0006D1D00006D1D00006D1D00006D1D0000D8
:100100006D1D00006D1D00006D1D00006D1D0000C7
:100110006D1D00006D1D00006D1D00006D1D0000B7
:100120006D1D00006D1D00006D1D00006D1D0000A7
:100130006D1D00006D1D00006D1D00006D1D000097
:100140006D1D000030B53D4B3D4A4921C3F80026E6
:100150003C48C3F8042687B0C3F80826C3F80C2629
:10016000C3F81026C3F81426C3F81826C3F81C26B3
:1001700005F024FD04F092FF00F07AFB054603A889
:1001800000F0E0FD0446284600F082FB2E4B1B6881
:10019000A34205D045212D4805F010FD05F06AF970
:1001A0004921059A2A4805F009FD039929484B7D04
:1001B0000A7DC98A0091492105F000FD49212648A0
:1001C00005F0FCFC4FF48031002002F069FC20B106
:1001D0004521224805F0F2FCFEE79DF8100002A937
:1001E00000F044F8044608B105F0C5FD029A059BED
:1001F0001B4D1344039A128913442B6002F038FC00
:1002000001F022F901F0F2F801F00CF984F30B8807
:1002100084F30A882B681B6883F3088884F31488A6
:10022000BFF36F8FBFF36F8F2B6858680D4B9847E4
:1002300045210D4805F0C2FCFEE700BF00800150DB
:100240003546526E1E7300002C00002037730000EC
:100250005A73000089730000A7730000CC7300007C
:10026000D801002001000020FF730000024608B5FD
:1002700038B105480023452105F0A0FC6FF01500BA
:1002800008BD0860FCE700BF2274000021B101290D
:1002900006D06FF015007047044B53F830007047DC
:1002A000024B03EBC0035868704700BF386F000073
:1002B0002DE9F04FB7B0429C5F4F0DF138083D6813
:1002C0000394419CCDF804800294409C82460094A3
:1002D0008B461646DDF80C9100F0F4F830B13D681D
:1002E00000F0CEFA284637B0BDE8F08FB9F1000F24
:1002F0000CD0424616AC134603CBA342C9F800000B
:10030000C9F804101A4609F10809F4D1002332464D
:10031000009359464FF6FF7308A804F0C0FE8146CB
:100320000028DCD1314650460D9C04F0BDFFA042B0
:10033000D5D34FF0FF34DFF808A1DFF808B10DF195
:100340001A0306AA07A908A804F0F7FE0028C6DBCE
:100350006DD1079908A804F03CFFBDF81A3040B9E8
:100360004FF6FF70354931F8022B8242B7D09342E5
:10037000F9D1102B15D0222B33D0012BDFD1BDF8B2
:100380001830202BABD83046079916AA05F031FC5F
:100390000028A4D19DF8181016A800F055F80446BE
:1003A000CDE7BDF81890B9F1200F98D14B463046F3
:1003B000079916AA05F01DFC002890D100F058FA04
:1003C0004A46059016A9404600F04CF9814605982A
:1003D00000F05EFADAF800304B4580D14FF00109A9
:1003E000ADE7002C20DBDBF800309C421CDABDF8C6
:1003F0001830802B3FF673AF3046079916AA05F0E8
:10040000F8FB00287FF46BAF00F032FAE4B2202151
:10041000BDF81830059016AA4046009400F09AF8EE
:100420000546059800F034FA4FF0FF3487E7B9F13C
:10043000000F7FF455AF52E728000020F072000053
:100440002C000020406F00002DE9F0452029804657
:100450000D46A9B005D94FF0FF34204629B0BDE8BC
:10046000F08500244FF0010A134B144E1B68144F03
:100470000193019B9C42EEDA00F082FFC7F800A5D1
:100480000BA803F0DDFB73680BA81A6856F8081B6D
:1004900005F0A2F903A90BA803F044FC00232A46A7
:1004A000C7F800354146C7F8003503A806F058FBE9
:1004B0000028D2D00134DCE7406F0000446F000018
:1004C000000084502DE9F0439FB09146DDE9286794
:1004D00098460C46269D00F053FF01221C4B01A8B4
:1004E000C3F8002503F0ACFB36B1002F04DD3A461B
:1004F000314601A805F070F963892289E768002474
:1005000013441F44A7420AD8279901A803F00AFC04
:1005100000200F4BC3F80005C3F800050EE03E1B9A
:10052000AE4228BF2E46424633462146484605F095
:1005300060FB30B10022064BC3F800251FB0BDE8B8
:10054000F0833246414601A805F046F93444D9E724
:10055000000084502DE9F04796B017461E469DF8DE
:1005600078203B4B814653F8321003EBC2035B68A3
:1005700001911868DFF8E8800144302302AA01A83D
:10058000D8F8005005F0B6F8002858D1DDE901434D
:100590001C44214606AB03AA01A805F0D3F80028A5
:1005A0004DD1049A072A4AD12A49059806F0D8FA6B
:1005B000002844D1079A082A41D12749089806F013
:1005C000CFFA00283BD1214602AA01A805F0A6F8DF
:1005D000A8BBDDE901A30AEB030294422FD1412B12
:1005E0002DD13E443023314603AA02A8029705F0DC
:1005F00081F81A4DE0B9DDE9023213449E4217D367
:10060000324602A906A804F0F2FD88B9324602A9D2
:100610000EA804F0ECFD58B99AF80030042B07D16D
:100620002023484606AA0AF1010100F0C1FE60B18C
:10063000D8F800302D68AB4218BFD8F8005000F051
:100640001FF9284616B0BDE8F0872B68F2E700BF17
:10065000446F000051740000487400002C0000201A
:100660002800002070B5094B04461D680023934202
:1006700005D1074B1D6800F003F9284670BDE65C04
:10068000C85C8642F7D10133F1E700BF28000020A3
:100690002C000020094A40000B7852F820108B42B1
:1006A00009D0013052F82000834214BF4FF0FF30D0
:1006B0004FF4C07070474FF4C07070474C6F00002B
:1006C0001FB5582303FB0100046A1023A1686A4682
:1006D0002046103905F08DFA034628B122784521CD
:1006E000034805F06BFA0024204604B010BD00BF9B
:1006F0005974000038B50E4B0446002918BF0B464C
:10070000436203F580630321036504F014FE58B9C6
:100710000921204604F00FFE054638B9206A05F08D
:10072000A7FAE065284638BD0125FBE70925F9E76A
:10073000DC0100202DE9F3471E46836805468B4205
:100740000C46174643D95B1A934240D386B36A4698
:1007500004F089FC00283CDB013FDDF800803C44CC
:100760001D4FDFF878906A462146284604F07BFC4E
:1007700000282EDBDDE9004A28465246214605F0D6
:1007800062FA002825DBC7F80096C7F80496C7F878
:100790000896C7F80C96C7F81096C7F81496C7F8CD
:1007A0001896C7F81C966EB1444512D9013CDAE799
:1007B000511E21446A4604F056FC002809DBDDF88E
:1007C0000080CDE75444A04503D30134CBE74FF07C
:1007D000FF3002B0BDE8F087008001503546526E10
:1007E0002C2310B559434218146A0CB905F0C3FA0A
:1007F00041580B4B994206D1D16813895B1802D23C
:100800005189C91801D3002009E0A3689942FAD29E
:10081000136940F60C621A420CBF0120002010BD83
:100820003DB8F3962C23F0B503FB02052F6A04466E
:1008300085B00FB905F09FFA00F01AF80023CDE952
:10084000023301934FF4807306463A4629460093DB
:100850002046064BFFF72CFD0446304600F018F802
:1008600000F00EF8204605B0F0BD00BF300F0020AC
:10087000024B1868421C1A60704700BFDC09002058
:10088000024A1368013B1360704700BFDC09002077
:1008900008B5034B1B68834201D004F0EBFD08BD93
:1008A000DC0900202DE9F0412C2707FB0107D7F8D0
:1008B000208004460D461646B8F1000F01D105F020
:1008C0005AFA04F08DFD10B93B69DB0620D5C5B19D
:1008D0004146204604F01FFEF379042B0CD1216A17
:1008E0000029ECD0204604F016FE024648B9492102
:1008F000194805F063F904E0002002F067F90428C4
:10090000EDD0164B1C68FFF7BBFF2046BDE8F08119
:1009100029462046FFF764FF70B9114B1C68114B44
:100920001B68A342EFD0A5B10121404604F053FD5E
:100930000D4A45210D48DCE7FFF79AFF2A46074696
:1009400031462046FFF76EFF04463846FFF7A0FF0A
:10095000E5E7074AEDE700BF977400002400002098
:10096000280000202C0000208D740000D6740000A8
:100970008574000000487047E00D002073B50D46F7
:10098000002104462846CDE9001104F08FFD58B33C
:1009900023681F4EB34206D1204601AA04F086FC0C
:1009A00008B105F0E8F9E36AB34206D16A460121CD
:1009B000204604F07BFC0028F3D1DDE900329342AD
:1009C00088BF0193019BAB60019A2946204600F045
:1009D000C5FB104B1A68002A03DD57210E4805F0AD
:1009E000EDF8002002B070BD01462046FFF768FE1A
:1009F00006460028D5D005F1080104F038FC00288F
:100A0000CFD1AB683046019305F0F2F8DCE700BFC8
:100A10003DB8F396400E0020FE7400002DE9F84F1B
:100A2000884691469A460026DFF870B0194C1A4D58
:100A30000B9B9E4201D300200FE00B9B40469F1B67
:100A4000B7F5806F28BF4FF48067144A3B4606EB2A
:100A50000A0105F0CEF810B10120BDE8F88F0A991F
:100A60003B465A464846711805F0D8F80028F3D19D
:100A7000C4F800563E44C4F80456C4F80856C4F8F6
:100A80000C56C4F81056C4F81456C4F81856C4F8D6
:100A90001C56CDE7008001503546526EE00900201B
:100AA0002DE9F04186B00E46044604F0BEFC014636
:100AB00028B145219B4805F081F804F0DBFC204675
:100AC000FFF718FE054678B900222046114604F0CB
:100AD00094FC054610B300225721934805F06EF8A8
:100AE000012384F8583009E0802257218F4805F00F
:100AF00065F801239D4284F85830E5D194F85830C8
:100B0000042B8DF80F3000F29D80012B00F2A280A3
:100B100000F0B880FF2384F85830B3E0204600F09E
:100B20001BFA0028DCD002A804F0B7FC01462046DE
:100B300004F02FFD18B12A4657217D48CEE702A8C0
:100B400004F0B4FC80F0010102AA2046C9B204F00E
:100B500054FC02460028BED102A804F0A7FCC8BB82
:100B6000204602A9FFF70AFF08B105F004F99DF835
:100B70000F30DA1E012A84F8583009D99A1E022A49
:100B800017D9FF2B1ED145216A4805F017F8ECE76D
:100B900000F004F99DF80F3028B9023B022B08D968
:100BA00094F85830EDE7FF22023B022B84F85820DE
:100BB000E9D8002000F0DCF80028F1D0FF2384F809
:100BC0005830E0E700222046114604F016FC0028C9
:100BD00086D0CAE79DF80F70012F1FD1104601F093
:100BE000F5FF831E022B054615D8FFF741FE394657
:100BF000804602AA2046FFF755FE07464046FFF70B
:100C000047FE4D4B1B689F4205D04C4B1D68AF42C1
:100C100014BF0525012584F858506FE7FFF728FE1B
:100C20000121074602AA2046FFF73CFE054638464A
:100C3000FFF72EFE404B1B689D4214BF05239DF815
:100C40000F304EE7052B7FF465AF002000F0A6F8CB
:100C5000C0B15FE7204602A9FFF790FE002884D1CB
:100C600094F85830DA1E012A0AD800F097F818B91B
:100C7000002000F07DF828B1FF2384F8583074E795
:100C8000022BF5D094F85830FF2B3FF47CAF0022B4
:100C9000012B2B4F019213D01146204604F0ADFBDF
:100CA00070B13D681022002102A805F051FF2046D6
:100CB00004F0D3FBFFF7E4FD284606B0BDE8F08161
:100CC000FFF7D6FD0022804611462046FFF7EAFDD9
:100CD00005464046FFF7DCFDDFF85C80D8F80030C1
:100CE0009D42DED13B689D42DBD0144B1B689D4288
:100CF000D7D00021204604F096FB0028D1D1019BDB
:100D000001330193019B012B7FF4D7AE206A04F0DD
:100D1000A8F93071236A5B683460D8F80050B3607A
:100D2000C0E700BF2D750000A07500005E750000D3
:100D3000CC750000F67500002C0000202400002077
:100D40002800002038B50446002004F00EFBFFF711
:100D50008FFD214605460548FFF7A2FE04462846BA
:100D6000FFF796FDFFF78CFD204638BDE00D002013
:100D700013B5094B01A913F8300000F017FD48B96D
:100D8000019805F03FFB0446019804F031FF20462E
:100D900002B010BD0124FAE7546F00001FB50F4BDD
:100DA00001A913F8300000F001FDA8B9019802A9CB
:100DB00001F0B6FE044668B99DF80B30032B03D151
:100DC000019805F0E7FA0446019804F011FF204667
:100DD00004B010BD0124F7E70124F8E7546F0000C8
:100DE0002DE9F34106460C4617461D460BB9002176
:100DF00021E0184604F05AFB01460028F7D130469E
:100E0000FFF75EFC18B9012002B0BDE8F08101A92E
:100E100004F02DFA0028F6D10199304604F0EBFBDE
:100E2000736A59686B79012B0CD1002CDFD12B68C8
:100E3000834298BF00212C2303FB0466306AB0B9BB
:100E400004F099FF022BD2D12B68012B05D98342E4
:100E5000CDD8B4FA84F46409C9E7C8D1002CEAD02B
:100E6000012CC4D12C79023C18BF0124BFE72023F8
:100E70003A4604F0BEFE0028C5D1002DC4D0386823
:100E8000024BC01A18BF4FF0FF30BDE73DB8F396D4
:100E90002DE9F04F07460C4685B001460020164666
:100EA000FFF7F8FB051E50DB3846E46D04F0D2F97D
:100EB0005FFA84F94FF0000A4FF0010B4FF0FF3456
:100EC0006B1E09FB03089DB9BAF1010F03DD452133
:100ED000204804F073FE631C06D07F2C2ADC40F20D
:100EE000011301343460B380284605B0BDE8F08FAB
:100EF0006B1E00934146012338460DF10F0204F0AA
:100F000078FE031E019322DB012238460DF10F010A
:100F100005F0DCF9019B40B15B4501D00AF1010A03
:100F20009B46009DA8EB0908CDE7B4F1FF3F08BF41
:100F30002C46F5E70223803C7371631004F0010432
:100F40000133013433603471CEE70725CCE7012546
:100F5000CAE700BF02760000F8B5866A456D044610
:100F6000AE4208D06B1CB34205D05721164804F09E
:100F700025FE0020F8BD802E19D957211348F6E729
:100F8000626A02EBC3025768226D02EBC302526829
:100F9000BA4202D057210E48E9E701339D42EFD112
:100FA000204604F034FC28B957210A48DFE7002323
:100FB0001F46F3E7AE4205D9636A03EBC5035B68DE
:100FC000BB42E7D10120D5E7257600005D76000021
:100FD0008C760000B876000010B588B0044604A9ED
:100FE000006A01F09DFD08B104F0C5FE9DF81020D7
:100FF000012A44D0264B2749032A08BF0B469DF8F7
:101000001320492102929DF81220234801929DF855
:1010100011200092214A04F0D1FDE06C06A901F0F4
:101020007FFD04460028DFD19DF81820012A28D032
:10103000174B1849032A08BF0B469DF81B2049216E
:1010400002929DF81A20144801929DF819200092EE
:10105000134A04F0B3FD9DF81030012B13D19DF815
:101060001230032B0FD19DF81830012B0BD04921E2
:101070000C4804F0A3FD0224204608B010BD0A4B22
:10108000BDE7094BD9E74921084804F097FDF3E78C
:10109000F1760000FA7600000E770000007700007D
:1010A0004F7700005F770000F57600007E77000044
:1010B00070B54B681446234A03F0FF23934206465B
:1010C0000D4686B03AD10B68012B37D1204604A9D2
:1010D00001F026FD08B104F04EFE9DF81020012A13
:1010E0002ED0194B1949032A08BF0B469DF813202F
:1010F000492102929DF81220154801929DF8112075
:101100000092144A04F05AFD9DF81030032B15D1BB
:101110002146304604F0FFF90028DCD1204605F0D6
:1011200039F90028D7D12046A96804F0AEF8002884
:10113000D1D1204601F0D2FC0028CCD106B070BD40
:10114000054BD3E700010004F1760000FA760000B9
:101150000E7700004F770000F57600002DE9F04F84
:101160001646054687B00C467C48492104F026FD0A
:101170003146284604F03FFA6B6A804620465E6896
:1011800004F094F9E8B1E86D04F0FAF80023AF6ACE
:10119000013F3344984201D9013FFAE7B84510D3E3
:1011A00057216F4804F00AFD07FB06F3572108FB9F
:1011B00006626C4804F002FD0123E37107B0BDE84C
:1011C000F08F2F6A0FB904F0D6FDEB6C0393002B60
:1011D000F9D01A4621462846FFF76AFF6379012BAA
:1011E00054D1C146DFF880B14BE02268C2F101035F
:1011F0004344994543D86B6A012A196853F839006A
:1012000003EBC90353F8083CA0EB010AA3EB01036D
:10121000049315D1E368022B0CD03946284604F01C
:101220007AF90028CFD122463946284604F088F9B9
:101230000028C8D12846039904F06DF90028C2D1CE
:101240000023324651463846FFF774FA0028BAD1D7
:101250003A4639462846CDE900A6049BFFF7DEFB57
:101260000028B0D12146284604F02DF92368013327
:10127000236020B1DBF800300133CBF8003009F1F6
:10128000FF39B9F1000FB0D10123236002234FF0E1
:1012900001096371C84591D3236899455AD36A6A95
:1012A0004FEAC90352F83910083BD2F800B0049154
:1012B000D1582A6DD0581368A0EB030A2379012B6B
:1012C00046D1A1EB0B010023324638460591FFF7CA
:1012D00031FA00287FF477AF0599534600913A46DA
:1012E000284603990196FFF799FB00287FF46BAF1E
:1012F0002146284604F0E7F80223237118B11A4A60
:101300001368013313600023324651460398FFF7F8
:1013100011FA00287FF457AF049B39462846CDE9DF
:1013200000A6039AA3EB0B03FFF778FB00287FF4DA
:101330004AAF2146284604F0C6F8236801332360EB
:101340000123237130B1084A13680133136001E0AF
:10135000022BD8D009F101099CE700BF9577000066
:10136000BE770000ED770000400E00200A4619B15C
:10137000024B00211B681847704700BF3000002057
:1013800070B5094D2B780BB1002070BD0126074CBC
:10139000C4F8006502F0F6FC18B92E70C4F8000518
:1013A000F2E74FF0FF30F0E73010002000008450EB
:1013B0002DE9F041ACB01F4606460C461546FFF736
:1013C000DFFF0123DFF820802A46C8F800352146D8
:1013D0003346009703A805F082FB0023C8F80035C8
:1013E0002CB0BDE8F08100BF00008450BFF36F8FC8
:1013F00072B600234FF0FF30094A03F12001013398
:10140000102B42F82100F8D100234FF0FF30044A9E
:1014100003F160010133102B42F82100F8D170472D
:1014200000E100E0002318460649D1F89020C2F3FD
:101430000722934200DB7047C1F89830C1F8A00042
:101440000133F6E700ED00E04FF0FF3301212DE915
:10145000F04300253A4A3B4E51603B4FC2F84833B7
:10146000DFF8EC80C2F8083302F58052516085B095
:10147000C2F84833C2F808334FF0FF3956F8044B2E
:1014800044F30730C4F8089300F0D2FB01236360F3
:1014900000236846C4F84C31D4F84C21C4F810310C
:1014A000D4F81021C4F84431D4F84421C4F80035EC
:1014B000D4F80C250092D4F814250192D4F808250C
:1014C0000292D4F81025C4F80C950392C4F8149530
:1014D000C4F80895C4F8109550F8041B4A1C0DD0A8
:1014E00001F01F02490926D107EB8202D2F800124F
:1014F00001EA080141F00201C2F800120133042B95
:10150000EAD180220021A01805F022FB80220021D0
:1015100004F5C07005F01CFB5DB14FF0FF330B4AC2
:10152000C2F808354FF05022C2F8083305B0BDE8C4
:10153000F0830125A0E70023803253F82230FFDE3C
:1015400000400150606F0000002584500070015081
:10155000F0F8FCFF014B1B68184700BF3400002067
:1015600030B585B004460D4610220021684605F0CE
:10157000EFFA02238DF80230044B2A4621466846D2
:10158000019303F023FC05B030BD00BF55150000EA
:101590002DE9F047058B04462807904611D402290F
:1015A00005F0070540F0CC80204604F02EFA78B113
:1015B0000138218B042811D8DFE800F0C2106D85B6
:1015C000950001290CBF45F0100545F02005258345
:1015D00088F31188BFF36F8FBDE8F08701F0070A29
:1015E000AA4500F0A5800027B9463E46A368002B17
:1015F00000F0BC8041F00801218388F31188BFF31B
:101600006F8FA168002900F0BA800D68002900F0F2
:10161000B680334652462046D1F80480C047002D9C
:1016200076D02B6829461D46F0E701F007035A1FC4
:10163000012A1BD8002221F00701062B276889B256
:10164000C4E9002209D13B4603E0628B0132628388
:101650001B68002BF9D141F002012046218304F0E0
:10166000D4F900287AD041F0200176E0042B0AD189
:1016700021F0070189B22046218304F0C6F910B198
:1016800041F020012183218B01F0070AAA454FD0A8
:101690000027B946AAE7236921F0070141F00601B6
:1016A000062DD3F8009021832DD1B9F1000F3FD042
:1016B00041F00801218388F31188BFF36F8F204622
:1016C0003949C84729E021F00701236941F00401A5
:1016D00089B2042DD3F804902183E6D000274FF07F
:1016E000040A3E4682E721F00701236941F0050123
:1016F00089B2052DD3F808902183D6D000274FF06A
:10170000050A3E4672E700274FF0060A3E466DE79F
:101710002B4687E7B9F1000FD1D1EFF311882023D1
:1017200083F31288BFF36F8F238B23F00803238387
:10173000258BEA062ED525F01003238305F0070537
:101740006669218B002EBFF670AF00232768C4E9BD
:10175000003321F0070141F001012183218B4FF07B
:10176000000901F0070AAA457FF440AF002F9CD082
:1017700041F00801218388F31188BFF36F8F002F98
:10178000C8D03D68394633465246204604F069F9D0
:101790002F46F4E7AB067FF51BAF25F0200323832C
:1017A00005F0070500E700BF8F5A000070B5104B29
:1017B0000D461C68B4B10F4B196800238B4202DB45
:1017C0006FF0010070BD224612F8106B864202D005
:1017D00014460133F2E7E06805F03FF928B1002034
:1017E0002C60EFE76FF00C00ECE76FF01200E9E718
:1017F00038000020686F000010B5436888B002937D
:1018000083680C46CDE9033200230A68C068CDE93D
:101810000623054901AA059304F060FB079808B95F
:10182000059B236008B010BD8D5C000008B505481D
:1018300004F0DEF8044804F0DBF8BDE80840034893
:1018400004F0D6B879780000B1780000E4780000A0
:10185000014801F047BF00BF4C70000008B50348C5
:10186000034A0021121A04F04EFA08BD300100208C
:1018700038100020074808B5074A0849121A04F032
:1018800044FABDE808400648064A0749121A04F01F
:101890003CBA00BF240000202C0100206C7A00001C
:1018A0000000002024000020487A000030BFFFF72D
:1018B000FDBF00BF154B9A6A12F0007F9A6A14BFF1
:1018C0001E201D2012F0807F9A6A18BF1F2012F47C
:1018D000801F9A6A18BF022012F4002F9A6A18BF5C
:1018E000212012F4802F9A6A18BF222012F4003FA0
:1018F0009A6A18BF232012F4803F9A6A18BF2420E6
:101900006FEA02426FEA12429A62704700ED00E00D
:1019100010B5194B0246986A9C6A10F4805F14BF98
:101920001720162014F4006F9C6A18BF1820A40515
:1019300009D5986B986A000404D51AB19A6A22F402
:1019400000429A6219200C4B9A6A12F4806F9A6ACC
:1019500018BF1A20D2050CD49B6A13F4005F18BF7D
:101960001C20054A936A43F47F43936200230B7063
:1019700010BD1B20F5E700BF00ED00E010B51C4BCB
:101980000246986A9C6A10F0100F14BF11201020B4
:1019900014F0080F9C6A18BF1220A40709D5586BD1
:1019A000986A000604D51AB19A6A22F080029A62F7
:1019B00013200F4B9A6A12F0010F9A6A18BF142075
:1019C00012F0200F9A6A18BF1520D40658BF9B6AE0
:1019D000074B9A6A920642BF5A6A22F400525A6230
:1019E0009A6A42F0FF029A6200230B7010BD00BF9A
:1019F00000ED00E0F0B5474B04465B6800258BB076
:101A0000C3F3080385F31188BFF36F8F02F07F40A3
:101A1000B0F17F4F11D102F00C0008280DD0100753
:101A20004CBF0C4601250022033B8DF80720032BF9
:101A300005D8DFE803F02462665F2C46F3E7002355
:101A40009DF80720CAB902AE04F12007324620688B
:101A50006168083403C2BC421646F7D1099A002DCA
:101A600053D0C2F3080121B96FEA52226FEA422231
:101A70000992184602A904F04AF90BB0F0BD254BB3
:101A8000DA6A9107DBD4DA6A002AD8DBDA6A520014
:101A9000D5D55A69A16942F480725A61BFF34F8F5C
:101AA000BFF36F8F5A6931F8021C22F480725A61B9
:101AB000BFF34F8FBFF36F8F4DF60272914209D083
:101AC0009A6AD2B242B101200DF10701FFF756FF29
:101AD0000346B5E72368B3E79A6A12F47F4F05D04F
:101AE00001200DF10701FFF713FFF1E79B6AB3F542
:101AF000803FA4D3FFF7DEFEEAE700200DF10701E7
:101B0000E4E700200DF10701EDE722F4FF7222F077
:101B10000102ADE700ED00E0064B5A6942F0100209
:101B20005A615A6942F480625A615A6922F0080285
:101B30005A61704700ED00E0EFF30880EFF3098190
:101B400001B57246FFF756FF01BD00BF002080F3CC
:101B50001488BFF36F8F002080F30A8880F30B880E
:101B60000F4880F3088801F0EFF800200D49086065
:101B7000BFF34F8F00F01AF8202080F311880A4835
:101B80004FF40061401880F30988EFF314800221BC
:101B9000084380F31488BFF36F8F00F08FF80000C4
:101BA0003840002094ED00E03810002072B6002389
:101BB00083F313884FF0FF300C4A03F12001013307
:101BC000102B42F82100F8D100234FF0FF30074AD4
:101BD00003F160010133102B42F82100F8D162B605
:101BE000BFF34F8FBFF36F8F704700BF00E100E07E
:101BF0001EF0040F0CBFEFF30880EFF3098081693A
:101C000011F8021C0229FFD001B5724604F085F8D4
:101C100001BD00BF40B2002807DB01234109034A90
:101C200000F01F00834042F82130704700E100E0DF
:101C300040B200280CDB01220649430900F01F00D6
:101C40008240203341F82320BFF34F8FBFF36F8FC3
:101C5000704700BF00E100E0054B420953F8222025
:101C6000012300F01F0003FA00F01040704700BF8E
:101C700000E100E040B2002801F10101ACBF00F139
:101C80006040064B4FEA4111C9B2ABBF00F561405D
:101C900000F00F0080F800131954704714ED00E0B5
:101CA000044B054A23F07F039360BFF34F8FBFF3CC
:101CB0006F8F70470000000000ED00E008B5FFF7EF
:101CC000EFFF104BD3F8882022F47002C3F888206D
:101CD000D3F8882042F4A002C3F888204FF0404295
:101CE000C3F83422BFF34F8FBFF36F8F0023E1EEB1
:101CF000103AFFF7B3FDFFF7BDFD00F02BF801F040
:101D0000F9FB00BF00ED00E0154606460C46002238
:101D100080B5E1EE102A82F30B880A4FA7F5205810
:101D200088F30B8887F309880020044988472046F8
:101D300029461A46B04702488047FEE73B5D00004F
:101D4000495D0000384000201022014B1A617047A5
:101D500000ED00E0002320210348C2180133412B8D
:101D600082F80013F9D1704700E100E008B5EFF305
:101D70000583064A103B02EBC30152F83300496861
:101D80008847BDE8084003F0D3BF00BFAC6C00003B
:101D900008B5054803F02CFE002383F31188BFF338
:101DA0006F8F0423184602DF1279000008B5064938
:101DB000064821F00701C1F1005202F5004203F08C
:101DC000BDFD002008BD00BF3F400020440E0020A4
:101DD0000122024B0020C3F84025704700900350B9
:101DE00048B1054B054A1B68B3FBF2F35843044B5B
:101DF00043F0010318477047AC00002040420F0039
:101E0000306F000008B54FF6FF723F230348C0E96A
:101E1000002301F081F8002008BD00BF500E002013
:101E2000084B70B5C31A0D4607499B100446594329
:101E30004022064803F0ABFF2B4601462046BDE892
:101E4000704018476C0E0020B76DDBB60C6C0000BC
:101E5000402373B50B4C0093041B0B460D460A49F7
:101E6000A41061430646094A094803F0BBFF011E5E
:101E700005DA30462B4602B0BDE87040184702B084
:101E800070BD00BF6C0E0020B76DDBB6535E000066
:101E90000C6C0000F8B50022012105460520FFF773
:101EA000E9FE104801F060F80446B8B901F07CF88A
:101EB0002F690D49384603F0F8FD031E09DB0126A2
:101EC0003E642D69084905F11C0003F0EEFD031E78
:101ED00002DA1C462046F8BDEE64FBE76FF004040E
:101EE000F8E700BFE91F00005470000010B5EFF3E1
:101EF0001184202383F31288BFF36F8F074A13687E
:101F000023F00201DB07116002D4012004F0F7FA8C
:101F100084F31188BFF36F8F10BD00BFBC0E00208B
:101F20000C22104B014602FB0033002030B4D3E9F1
:101F30000E529863EFF31180202484F31288BFF3CC
:101F40006F8F1C6C04F0C00444F002041C6480F326
:101F50001188BFF36F8F1DB12B4630BC0248184764
:101F600030BC70476C0E00200C6C000010B4EFF316
:101F70001182202383F31288BFF36F8F1848016802
:101F800041F002040460C80708D482F31188BFF34B
:101F90006F8F01205DF8044B04F0A9BA4FF0502177
:101FA000D1F80C04D1F80C14C907EED5EFF3118069
:101FB00083F31288BFF36F8F0A490B6C03F0C003E1
:101FC00043F002030B6480F31188BFF36F8F82F339
:101FD0001188BFF36F8F00205DF8044BFFF7A0BF9F
:101FE000BC0E00206C0E002010B1012804D07047F8
:101FF000034B1B6C5B0701D1FFF792BF704700BF1B
:102000006C0E00202DE9F843012207463449D1E83F
:10201000EF3FC1E8E02F0028F9D133B93149324808
:102020004B60CB608A6003F053FD7B1E012B2DD8E3
:10203000012F07D14FF05023D3F81C3403F00303D2
:10204000022B23D004F02EFD054608BB274B1B783E
:10205000F3B14FF0502302220646C3F808234FF095
:1020600050244FF00008DFF88890D4F81824D4F8F2
:102070001834D20315D503F00303022B01D0012F2E
:102080000FD135B386F31188BFF36F8FBDE8F883A6
:10209000EFF31186202383F31288BFF36F8F01259E
:1020A000DDE7304603F058FED4F81835DBB2012BDB
:1020B000DBD1D4F80421002AD7D0C4F80481D4F8A5
:1020C00004210222C4F818252022C9F88021A36027
:1020D000CBE74FF050230222C3F80423D6E700BF1A
:1020E000680E0020580E0020880E002035100020B9
:1020F00000E100E0024B0B6001231360704700BF5A
:10210000C00E0020004870477870000010B504F041
:1021100085FC034C206004F07EFC6060002010BD54
:10212000C00E0020F8B50E461946304617461D462B
:1021300003F009FFB8B145EA060414F0030412D114
:102140004DB12B19032BA6EB040006D8074AD2F891
:102150000034DB07FBD50020F8BD3B1B196801F0FC
:1021600089F9043CEDE76FF01500F5E700900350A6
:10217000430970B507D10B4B596821B101250C6893
:10218000094E854001B970BD8A682A4002D03046A8
:102190004B6898471CB1236821461C46F2E723464A
:1021A000FAE700BFC80E00202C6C00002DE9F043B8
:1021B00040F206354768D00648BF4FF0030C3B7C21
:1021C00002EA050558BFC2F3401C87B001F01F06A4
:1021D000B5F5837F144646EA43168DF803C042D016
:1021E0000DD8062D16D005D8A5B1022D3DD06FF023
:1021F000150035E0B5F5807FF9D101250AE040F200
:102200000222954233D0B5F5407F32D0B5F5007F3C
:10221000EDD102250123220303FA01F12BD57B68BE
:102220009960B86860BB06F01F03760971D13B4A1C
:1022300084F4803102EB8302D2F80032C1F3004112
:10224000C4F3404423F4E16344EA410423F0070368
:102250001C4344EA8C0444EA0524C2F800420020EE
:1022600007B0BDE8F0830725D4E70425D2E70525AC
:10227000D0E70325CEE7630344BF7B68D960D0E78E
:1022800031460DF1020204F067FB14F4403F804632
:102290000CD13146B86804F071FBB8F1000FDED103
:1022A0009DF80210B86800F0E1FFD8E74FF0000990
:1022B00001ABCDE90199CDE90439CDF80C90314657
:1022C000B86803AA04F043FA4845C8DB14F40033A5
:1022D00014D09DF8033084F48034C4F300448DF8A6
:1022E0000E308DF80C508DF80D404B463146B868D5
:1022F00003AA04F0C7FA0028CFDAB0E7CDE9043327
:102300000DF1030303933146B86803AA04F01FFAE2
:10231000F1E7803350F82330FFDE00BF0025845002
:1023200038B54568A86890B104F022FB014670B941
:10233000A86800F069FF044658B902460649A86833
:1023400004F007FB224605210D20FFF793FC002037
:1023500038BD6FF00400FBE771210000F0B5446860
:102360001646A068227C01F01F0587B045EA421599
:10237000002864D0B6F5001F04D1294604F046FBBE
:1023800000204DE00020B6F5800F01AA01905060BA
:1023900035D1B3F1007F14BF052304238DF8043039
:1023A0000023CDE904230393E3680DF1030723FA27
:1023B00001F111F0010135D1B6F1A07F32D105F064
:1023C0001F036A0903F180033CD1204A52F82330ED
:1023D000DB0727D43A462946A06804F0BDFA163038
:1023E00018D002972946A06803AA04F0B0F9002883
:1023F00016DB01222946A06804F0C2FAC0E7B3F157
:10240000C06F05D0B3F1007F14BF01230223C5E7DD
:102410000323C3E73946A06800F032FF0028E0DA62
:1024200007B0F0BD3A462946A06804F095FA0028A6
:10243000D8D19DF80310A06800F018FFD2E76FF024
:102440008500EDE751F82330FFDE00BF0025845002
:102450002DE9F04740F2FF16594FDFF868C1DFF869
:1024600068E100EB8101814202D10020BDE8F087E4
:10247000046814F4804FC4F3C325C4F3080340F088
:102480008C80240EB34208BF4FF0FF337D5D192CC2
:1024900000F28680DFE804F00D13191C1F251C8450
:1024A000848484366084848484848484848463788B
:1024B0007B7EC2F80C355C1C5BD10430D3E7C2F8DC
:1024C00014355C1CF9D000245CE0C2F80835F2E752
:1024D000C2F81035F5E75C1CC2F80835EDD00024D1
:1024E00004E05C1CC2F80C35E7D001245FEA531805
:1024F00059D14FF00109DFF8CC8009FA03FAC8F886
:102500000CA008E0C2F80835002DDAD15C1CD4D04C
:1025100000240625A146D0F800A00AF40048B8F12E
:10252000000F1CBF4FF00009012403F01F085B09D6
:102530003FD10CEB8808D8F80032CAF3412A03EAED
:102540000E0343EA8A0343EA052343EA090343EA05
:102550004403C8F80032B0E7C2F80C35D4E7C2F83B
:102560006035B3F1FF3F0468A7D0C4F30044002CEA
:10257000BBD05C091AD10124DFF8488004FA03F9C2
:10258000C8F80890A146C6E7C2F86435E9E7C2F882
:102590006835E6E7C2F86C35E3E76FF0150065E7EC
:1025A0006FF0850062E70023DB60FFDE00239B60A5
:1025B000FBE7002308F1800853F82830F5E700BF57
:1025C0005579000000258450F0F8FCFF2DE9F0411A
:1025D00004460D46476804F065FA4FF0200868B9D4
:1025E000244B1B7853B16426606803F073FDD0B9A7
:1025F000012003F033FF013EF6D1F4E7EFF311863B
:10260000314688F31288BFF36F8F606803F062FD74
:10261000A8B986F31188BFF36F8FEFE786F31188AF
:10262000BFF36F8FDFE7EFF31186314688F312882F
:10263000BFF36F8F606803F04DFD0028EED0BB69DB
:1026400000201D706368BA691B68C3F84425012225
:10265000C3F84825C3F82001D3F82041C3F8580136
:10266000D3F858019A6081F31188BFF36F8FBDE8EA
:10267000F08100BF351000200123834070B5DC439A
:102680000B4AD2E8EF1F01EA0405C2E8E65F002E1C
:10269000F7D14FF4803282400648C0F80823BFF3D8
:1026A0005F8FBFF36F8F0B4214BF0120002070BDFE
:1026B000F00E00200050015070B40E4922F07F4609
:1026C000D1E90034D01AC31844F10004C1E9003440
:1026D000A6F50013B3F5400F09D2074B1B681A0A81
:1026E0001B069C19054B42F10005C3E9004570BC6F
:1026F00000F05ABF40010020F40E002048010020E5
:10270000D9B101230D4A8340D2E8EFCF4CEA030C44
:10271000C2E8E1CF0029F7D14FF48033084A834063
:10272000C2F80433074BD3E8AF3FC340DB0742BFD7
:102730004FF40012044BC3F800217047F00E002044
:1027400000500150EC0E002000E100E00D4B186835
:10275000010A0006BFF35F8F0B4BD3F8043518183E
:1027600041F10001B3F5801F0AD2084BD3E90023E1
:10277000904271EB030303D210F1807041F100012C
:10278000704700BFF40E00200050015048010020A7
:102790002DE9F04F85B016461F4604469DF840A02F
:1027A000FFF76AFF0190FFF7D1FFB04271EB07031B
:1027B00052D23B4B301A67EB0101984271F1000194
:1027C0004DD2384B03EB0413D3E902239F4208BFD9
:1027D000964258D04FF48038334908FA04F820461E
:1027E00026F07F4BC1F8488303F045FD4FF0030905
:1027F000584604F15005AD00ADB205F1502504F581
:10280000A87305F580350293029A20F07F4341F8C2
:102810002230C1F84483D1F80435244AC01A033861
:1028200020F07F4090422ED9286868B1D1F8043555
:10283000A3EB0B0020F07F40B0F5000F039322D9EB
:10284000204603F018FD039BBAF1000F07D109EBF6
:10285000030009F10109D7E7BAF1000F09D06FF0C1
:10286000150520460199FFF74BFF284605B0BDE846
:10287000F08F01230E4AA340D2E8EF0F1843C2E8BD
:10288000E10F0029F8D107490E982301C8500F9B8A
:1028900001EB04120025C2E902675360E1E700BFC3
:1028A000010080003001002000500150FDFF7F003A
:1028B000EC0E00207FB500254FF0FF304FF0FF31C8
:1028C000194C1A4B0226C4F80833C4F84833184B85
:1028D000C4F80855C3E902014FF480334FF40012E5
:1028E000C4F80433134B0121C4F804631520C3F862
:1028F00080212A46FFF7BEF91520FFF78BF9012347
:102900000D4AA360236013600C4B0D4A00932846C8
:102910000023CDE90155FFF73BFF3046FFF772FB7F
:10292000284604B070BD00BF0050015003000F00E6
:102930003001002000E100E0F00E0020B926000088
:10294000FFFF7F002DE9F7432E4BD3F804239007B8
:102950000BD5D3F8042142B10022C3F804212A4A3E
:10296000D3F80431136801331360264AD2F80433D4
:10297000D90326D5254BD3E8EF1F21F00100C3E88A
:10298000E40F002CF7D1CB0702D4D2F84031C3B109
:1029900000251C4CC4F84051D4F84031FFF7D6FE56
:1029A000EFF31182202383F31288BFF36F8F184B4C
:1029B000D3E90267B042B94106D282F31188BFF36E
:1029C0006F8F03B0BDE8F0834FF0FF38D3E90010FC
:1029D0004FF0FF391D60C3E902894FF48033C4F81A
:1029E0004833C4F84051D4F8403182F31188BFF322
:1029F0006F8F0029E5D0009032463B462846884735
:102A0000DFE700BF00500150F40E0020EC0E002064
:102A10003001002030B5431C124C85B005D08442F3
:102A2000A8BF0446012CB8BF0124FFF78FFE0E4B50
:102A30000C4DD3E90013401AB0F5000F0FD2221845
:102A4000AA4228BF2A46002052180849CDE90100B1
:102A5000009143F10003FFF79BFE05B030BD2A460D
:102A6000F1E700BFFFFF7F0040010020B926000012
:102A7000012310B5074C15206360FFF7D9F84FF418
:102A80000012054BC4F80833C4F84833034BC3F8AD
:102A9000802110BD0050015003000F0000E100E054
:102AA00040EA0103C3F30E0330B58BB940F21515AC
:102AB000094CC90BC0F3C730994201D1002030BD89
:102AC000C218D2B202F5C07244F822500133F3E7C3
:102AD0006FF01500F3E700BF00300050F0B585B08F
:102AE0006E4681680546103921F0070403F0C7F8E7
:102AF00032460A4B03F1100C374618685968083300
:102B000003C763453E46F7D110232146284603F00C
:102B100085F8003818BF012005B0F0BD0E73000025
:102B200030B50D46816887B0102302AA10390446DB
:102B300003F05FF8002802DA012007B030BD102250
:102B4000204602A903F0C2FB00283AD110221E49F8
:102B500002A804F005F800280CBF012302232B7003
:102B6000204603F09FFB012301460DF1070220469A
:102B700003F03FF80028DFDB9DF80730204603F024
:102B80000F021B096A702B7101220DF1070103F07E
:102B90009DFB10B96B78042B03D901236B700023C4
:102BA0002B71A2682046183A22F00702083AA91CA5
:102BB00003F09FFB0028BFD12046E91C03F0F1FB86
:102BC000BBE70323CBE700BF0E730000F0B5354F22
:102BD00085B046000546694657F8260003F0E7FB36
:102BE000044610B1FF2005B0F0BD013657F82600AD
:102BF00002A903F0DCFB012837D12A4649212A48E3
:102C000002F0DCFF294B8DF80C40029300229DF866
:102C100000609DF80870264C3146207803F048FB90
:102C200050B33946607803F043FB28B3A378042BF4
:102C300003D09DF8031099421ED1E378042B03D0F2
:102C40009DF80B10994217D12379042B10D162798A
:102C5000022A1DD1174B18482A46492102F0AEFF1F
:102C60006079831E022BBED9BCE70028CED0B9E71D
:102C70009DF802109942EAD00132032A04F10604B9
:102C8000CAD10E482A46492102F098FF0120AAE73E
:102C9000032A05D00A4B0B49042A08BF0B46DAE782
:102CA000094BD8E74C71000094790000030103033D
:102CB000297A000076790000DF790000037A0000AD
:102CC0007B7900008D7900007179000008B5EFF381
:102CD0001083012B0C4A07D1126ABFF34F8F511C8E
:102CE0004A424A41104608BD03F094FB00B172B657
:102CF000126ABFF34F8F531C5A425A4103F08AFBAA
:102D00000028EFD062B6EDE70080FF0008B5EFF3D2
:102D10001083012B0B4A06D1D269BFF34F8F02F00B
:102D20000102104608BD03F075FB00B172B6D2690E
:102D3000BFF34F8F02F0010203F06CFB0028F0D0CC
:102D400062B6EEE70080FF0010B503F063FB30B120
:102D50004FF050230022C3F81421C3F8182103F0C8
:102D600068FB28B10122644BC3F8382AC3F87825E0
:102D70004FF47F02D2F83031D2F83421BFF34F8FB5
:102D8000C3F30B03092B05D1012A1EBF01225A4BA5
:102D9000C3F8782503F04DFB18B10E22574BC3F84A
:102DA000E42E03F037FB30B10022534BC3F80C275D
:102DB0000122C3F810270022D30003F57F03D3F8C4
:102DC0000013BFF34F8F013108D0D3F80013013245
:102DD000D3F80433B2F5807F0B60EDD1EFF31084AC
:102DE000FFF794FF00284DD0BFF34F8F444BD3F82B
:102DF0000024012AFBD1C3F80425D3F80024012ABA
:102E0000FBD1012C03D003F005FB00B172B6FFF734
:102E10007DFF58B13B4AD36923F00103D361BFF36F
:102E20004F8F374AD2F80034012BFBD1FFF74EFF0A
:102E300068B1344A136A23F0FF0343F0200313629E
:102E4000BFF34F8F2E4AD2F80034012BFBD1012C57
:102E500003D003F0DFFA00B162B60022284BC3F8BA
:102E60000425D3F80024012AFBD1BFF34F8F264954
:102E7000264BCA6802F4E0621343CB60BFF34F8F66
:102E800000BFFDE7FFF722FF0028ADD11E4AD2F8B0
:102E90008C3043F44063C2F88C304FF47F03D3F896
:102EA0003021D3F83431BFF34F8FC2F30B02092A1C
:102EB00016D1013B022B02D8154AD35C83B11148CD
:102EC000144903680E4A8B420CBF5A230023C2F8F0
:102ED000103EC36A8B420CBF5A230023C2F8003E47
:102EE000094AD2F8883043F47003C2F88830BFF33F
:102EF0004F8FBFF36F8F10BD0040005000A00350F4
:102F0000009003500080FF0000ED00E00400FA058F
:102F10003B7A0000FA50FA50014B1860704700BF2E
:102F2000F80E002010B5054B1446186803F098FA07
:102F30000028A4BF2070002010BD00BFF80E0020A4
:102F40000123024A8340C2F80435704700700150E3
:102F5000014B00201B681847FC0E0020014B1B682A
:102F6000184700BFFC0E002010B50C4C237993B914
:102F7000012323710A4B0028206018BF184600F077
:102F800023F850B923680748002B08BF1846BDE84E
:102F9000104000F05BB86FF0770010BDFC0E002011
:102FA000512F00005D2F000008B5064B1B6843B190
:102FB0000520FEF751FE20B9BDE808400520FEF7C8
:102FC00029BE08BDFC0E0020054B0246187918B931
:102FD0001A6001221A7170476FF07700704700BFC6
:102FE000040F00204FF050230022C3F80021D3F833
:102FF0000021012208491A60096811B1C3F80423AD
:103000007047D3F80021002AFBD00022C3F800212A
:10301000D3F80031704700BF040F00204FF0502359
:10302000D3F80423D2070DD5D3F8002152B10022E2
:10303000C3F80021D3F800210122C3F80823024B72
:103040001B681847704700BF040F0020074B02465B
:10305000187938B91A6001221A714FF05023C3F859
:10306000182570476FF07700704700BF0C0F0020E5
:103070004FF0502310B5D3F818141E4C11F4803FB4
:10308000D3F818241AD002F00302022A04D0012A2D
:1030900001D003F061FA01224FF05023C3F8182544
:1030A0000022C3F80421D3F8042101229A60226887
:1030B0008AB9D3F80421002AFBD014E0D3F81424F1
:1030C000D207E8D5D3F81C2402F00302013A012A02
:1030D000DFD822681AB10222C3F8042310BDD3F846
:1030E0000421002AFBD00022C3F80421D3F80431C4
:1030F000F4E700BF0C0F0020F8B54FF05023012576
:103100000026D3F80443184F04F0020404B9F8BDB4
:10311000B4FA84F0C0F11F00830003F580739BB202
:1031200003F15023196805FA00F224EA0204002989
:10313000ECD01E601B684FF050230128C3F8082311
:103140000ED1D3F81824D3F8182402F00302012A70
:1031500006D10221C3F81815C3F804139A60D5E705
:103160003B68C0B29847D1E70C0F0020036803F01A
:103170001F025B090260024818BF0020704700BFB1
:1031800000258450024611F0010004D003490B6A67
:1031900013600B6203B90020704700BF0025845004
:1031A00073B5CEB200EB4606B38A0446DB070D4684
:1031B00025D503F0AFFAB38A9A0608D55A0B2368CF
:1031C00003EB82030022C3F81025C3F81025204624
:1031D0000024294603F050FAB48201A80195FFF7B4
:1031E000C5FF019B00EB8300D0F80022054B134084
:1031F00043F00203C0F80032204602B070BD6FF009
:103200001500FAE7F0F8FCFF70B590F86C40054641
:1032100090F86D6024BB21464022143003F098FCE6
:103220002146114B286853F836608E420ED1002497
:10323000C0F87C41D0F87C3140F30730FEF7EAFC5F
:103240000123204685F86C30AB6570BDCBB29B0086
:1032500003F580727C2B04BF845083580131E4E76E
:103260006FF07700F1E700BF5471000090F86D0037
:10327000024B03EB800003F00DB900BFB00000204B
:1032800010B5064B90F86D000C4603EB800003F080
:10329000E7F80028A4BF2070002010BDB000002077
:1032A0002DE9F04F814659F804AB90F86D60DAF8DB
:1032B0000413574CC9B2804654F83620504687B0A4
:1032C00041F0004103F0FFF9051E23DA00234FF01F
:1032D000010B049304EBC6035B6804A8194604EBD6
:1032E000C6040193FFF74EFF231D0293029B1B7838
:1032F000D90701D5049C9CB94FF0004100225046EB
:1033000003F0E1F9019904A8FFF73CFF0028EDD193
:1033100025F000450124002D63D107B0BDE8F08FF2
:1033200094FAA4F4B4FA84F408EB44039F8AE00806
:1033300004AB1B5C04F007020BFA02F223EA02035F
:1033400004AA135405A80594FFF710FF059BB908BC
:10335000803350F82330C7F382064A073746C3F359
:10336000014322D53A4648462146DEB203F067F9CA
:1033700005A80594FFF7FAFE059B803350F823302B
:10338000C3F301439E4207D10021204603F048F9D0
:103390003146204603F044F905A80594FFF7E6FE00
:1033A000059B0BFA03F30362A4E7022B0DD1032163
:1033B000204603F035F906F00503012BECD13A461F
:1033C0002146484603F03BF9E6E7022120460393F5
:1033D00003F026F9032EF2D0039B032BDCD1022E3F
:1033E000ECE795FAA5F3B3FA83F304FA03F225EABE
:1033F000020503F5A2725AF8222008EB430348465F
:10340000B3F85C10C2F3014203F019F983E700BF7F
:10341000547100000022034BC3F88425C3F804252F
:10342000704700BF00900350044AD2F80834DB070D
:10343000FBD50160BFF35F8F704700BF0090035062
:1034400008B5C0F30B0383B90222094BC3F88425E6
:10345000C3F804254FF0FF320260D3F80024D207EE
:10346000FBD5FFF7D7FF002008BD6FF00C00FBE78E
:1034700000900350012208B5054BC3F88425C3F81A
:103480000425FFF7D1FFBDE80840FFF7C3BF00BF29
:103490000090035038B50A4B53F82040013053F8E0
:1034A0002050A54200D838BD606830B1037FDB07EB
:1034B00001D403F0BAFA0834F3E723689847FAE72F
:1034C00064710000012208B5084B03201A70FFF751
:1034D000E1FFFEF7ABF90420FFF7DCFFFCF732FE5B
:1034E000034A137B23F00103137308BD351000203A
:1034F0005001002008B50020FFF7CCFF154B03F565
:10350000006282F3088883F30A880025E023124CC6
:1035100084F82230E57725766576A57684F8205004
:10352000636A43F4E023636284F82350FEF7F4FAFD
:10353000FEF70AFC4FF0FF330120A362E362FFF7BE
:10354000A9FF0220FFF7A6FF2B462A46294603487B
:10355000FEF7DAFB3810002000ED00E0C534000073
:10356000024B1868984208BF00207047B80000203E
:1035700030B570B10B4B5B6898420AD0036843B119
:10358000D3E90421D0E90445121941EB0501C3E94F
:103590000421D0E9003213605A600023C0E90033EF
:1035A00030BD00BFB80000202DE9F047EFF31185D2
:1035B000202383F31288BFF36F8F244F4FF000084E
:1035C00038604FF00009FFF7CBFF214E3B68D6E98A
:1035D000001E4FEAE37C50B1D0E90442A3427CEBE9
:1035E000020A17DAE41A62EB0C02C0E90442002472
:1035F0005B184EEB0C022046C6E900323C6003F03B
:1036000057FA2146FFF706FA85F31188BFF36F8F4B
:10361000BDE8F08761184EEBE473C0E90489C6E9A0
:103620000013FFF7A5FF85F31188BFF36F8F836841
:103630009847EFF31185202383F31288BFF36F8F30
:103640003B681B1B3B60FFF78BFFBFE7140F00209D
:10365000D001002010B50A4C23681BB10123236060
:10366000002010BD00F046F80028F7D001380628E9
:1036700003D8044B53F8200010BD034810BD00BF11
:10368000180F00207C710000FE8FFFFFBFF34F8FEB
:103690000549064BCA6802F4E0621343CB60BFF3EE
:1036A0004F8F00BFFDE700BF00ED00E00400FA050A
:1036B00030B44FF0FE320025074B084C08494968EA
:1036C000C3F80024C3F80424C3F80824C3F80C2466
:1036D000C4F8005530BC08470010845000008450E6
:1036E000C0000020024BD0E90012C3E9001270476D
:1036F000C000002038B500F02FF820B1032400F0FE
:1037000063F8204638BD00F031F898B900F0ACF805
:1037100098B90F4DD5F828391B0EF02B08D1D5F8E4
:10372000242A0C4B9A420AD0072400F017F8E6E747
:103730000624FAE70424204638BD0024F5E70120DA
:1037400000F092F804460028F7D1C5F80C0AD8E733
:10375000001084500000E0200020704700207047D7
:10376000014BC3F8040A70470010845010B511488B
:1037700000F048F800B110BD0F4800F043F80028F1
:10378000F9D10E4C204600F03DF80028F3D10C4B47
:103790000C481C6000F036F801460028EBD100F020
:1037A0002DF8044608B1204610BD00F03FF8204631
:1037B000FAE700BFD8000020D4000020D00000208D
:1037C000C8000020CC00002008B5084800F024F80C
:1037D000074800F021F8074800F01EF8064800F0FE
:1037E0001BF8BDE8084000F00BB800BFD80000206F
:1037F000D4000020D0000020CC0000200020704722
:10380000704700BF08B5034B02681B6810689847F3
:10381000002008BDF000002008B5034B02685B687B
:1038200010689847002008BDF000002070B5094CD2
:10383000094D2069AB68984718B1084B08485B6888
:1038400098470021074AEB6811602069BDE8704085
:10385000184700BFDC000020F0000020C00000205E
:10386000987100001C0F0020F8B51A4D1A4E04463E
:10387000B26828699047E8B9184F3B684CB1A3B1CA
:10388000012B19D0013B3B602869F3689847002061
:10389000F8BD43B90121124AC2F800151149D1F807
:1038A0001029002AFBD101333B60F368286998474F
:1038B0000020F8BD0C48F8BD0A4AD2F81039002B98
:1038C000FBD1074A6FF07E40C2F80035FFF748FF92
:1038D0003B68D7E7DC000020F00000201C0F002030
:1038E0000000845000108450E98FFFFF10B504469B
:1038F00050B1636813F0685F05D0064A934202D066
:1039000000236260236010BD034B04485B68984746
:10391000EFE700BF2C5F5CA9C0000020B871000079
:10392000C8B143680D4A934213D013F0685F0ED0BC
:10393000012350E8002F194640E8001C9CF0000FBE
:10394000F7D1012AF5D0BFF35F8F002070470448FC
:103950007047044870476FF4E04070472C5F5CA9E3
:10396000E98FFFFFEA8FFFFF034680B142680949F4
:103970008A420AD012F0685F05D0BFF35F8F002241
:1039800010461A60704704487047044870476FF447
:10399000E04070472C5F5CA9E98FFFFFEA8FFFFFD3
:1039A00010B5044620B10023034A2360626010BDB5
:1039B0000248FFF77DFEF6E73A00003AE0710000AA
:1039C00030B10268034B04489A4208BF0020704798
:1039D00002487047DD55AABB8208F0007108F0006C
:1039E00038B50D460446B0B1A0220021043003F0E2
:1039F0008FF895B10822294604F1640003F08EF88F
:103A0000082205F1200104F1840003F087F800206A
:103A1000034B236038BD0348FCE70348FAE700BFC7
:103A2000DD55AABB7108F0008308F0002DE9F743CB
:103A300005460E4699461146FFF7C2FF0446002888
:103A400040F08480002E00F08580002900F0848002
:103A5000B9F1200F40F0828005F14404082205F1FD
:103A60000408204603F05AF805F1240708223146DD
:103A7000404603F053F806F120010822384603F0CF
:103A80004DF802A941F8049D4FF4807003F03AF814
:103A9000002865D14FF48073324A0121136093608E
:103AA0000823314A00F034FB0121052308462F4A40
:103AB00000F02EFB0823424601211C2000F028FBC9
:103AC00008233A460121032000F022FB2246082366
:103AD0000121022000F01CFB0823254A01211A20A5
:103AE00000F016FB0523234A01211B2000F010FBE8
:103AF0000823214A0121142000F00AFB08231F4A51
:103B00000121152000F004FB082305F164020121C6
:103B1000162000F0FDFA082305F184020121172088
:103B200000F0F6FA0823164A01210B2000F0F0FA03
:103B300000F04AFB0446019800F0D8FA114B002C23
:103B400018BF1C46A421284602F0E4FF204603B01B
:103B5000BDE8F0830C4CF9E70C4CF7E70C4CF5E7AB
:103B6000084CEFE79010845044720000BC720000D3
:103B700004720000A87200006872000088720000E1
:103B8000247200008408F0007608F0008008F0003D
:103B90008108F000C2690C4B1A60826943F8042C5A
:103BA000426943F8082C026943F80C2CC26843F8B8
:103BB000102C826843F8142C426843F8182C0268D1
:103BC00043F81C2C704700BF5C1684500C4B1B68DC
:103BD000C3610C4B1B6883610B4B1B6843610B4B30
:103BE0001B6803610A4B1B68C3600A4B1B68836038
:103BF000094B1B684360094B1B680360704700BF9B
:103C00005C168450581684505416845050168450B4
:103C10004C168450481684504416845040168450E4
:103C200030B10268034B04489A4208BF0020704735
:103C300002487047DD55AABB0202F0000002F00006
:103C400038B5044668B1051D7021284602F062FFB0
:103C500028462022044902F059FF0020034B23602C
:103C600038BD0348FCE700BFD0720000DD55AABB99
:103C70000002F0002DE9F04385B015466F46274B52
:103C800004460E460FCB87E80F002DB94FF0000910
:103C9000484605B0BDE8F0832046FFF7C1FF8146E6
:103CA0000028F5D1231D0193636AA3BB236F8BB159
:103CB000C3F14008A84528BFA84604F130003146AA
:103CC0001844424602F022FF236F464443442367D0
:103CD000A5EB0805226F402A06D104F130013846D1
:103CE00000F0B4FB0023236705F03F0835F03F05E3
:103CF00005D031462A46384600F0A8FB2E44B8F1DC
:103D0000000FC3D04246314604F1300002F0FEFEFF
:103D1000C4F87080BCE7DFF80890B9E7206F0000B6
:103D20000C02F0002DE9FF4104466F46134B0E468E
:103D30000FCB87E80F002046FFF772FF8046B0B92F
:103D4000CEB1636A251D01953BB90123226F6362E1
:103D500004F13001384600F079FB2B46043E243450
:103D600053F8042B12BAA34246F8042FF8D1404668
:103D700004B0BDE8F081DFF80880F8E7206F0000AC
:103D80000502F000084B1B681B0EF02B08D1074BF7
:103D90001A68074B9A4205D10020064B18607047FD
:103DA000052070470620704728198450241A845033
:103DB0000000E0200C1A8450002230B5134640F673
:103DC000FC754900023802F1A15404F58234904296
:103DD0004FEA840402F10102CABF236025605B1828
:103DE0001E2AF0D1034A13600B445360024B034A6E
:103DF0001A6030BD781084508410845020F80F0071
:103E00001E4B30B51A4685B0196800910099CC0751
:103E1000FAD500F1A15000F58230800001681368E6
:103E20000193019BD807FAD5154B164C186820232F
:103E30001F3090FBF3F0144D0138002810DA0023F6
:103E40000130400153B14FF00042A0F12001134274
:103E500004D1013888424FEA5202F8D105B030BD92
:103E600013680393039BDB07FAD5431823602B6881
:103E70000293029B002BE3D10138DEE7B41084509B
:103E8000AC108450E4108450DC108450F0B51D68F0
:103E900085B001F01F040DB91F2C28D1174D2E46F7
:103EA0002F680197019FFF07FAD500F1A15000F597
:103EB00082308000006835680395039DED07FAD5D0
:103EC0001F2C00EB611018BFC9430D4D18BF01F046
:103ED0001F0128600B480068029002981CBF00FA7E
:103EE00001F111604FF0000108BF10601960106807
:103EF0004300C00F136005B0F0BD00BFB410845084
:103F0000E4108450DC1084500C4B890118603F3061
:103F100020F03F004030586099600948D96019612D
:103F2000596199611C3382B0196002680192019A4B
:103F3000D207FAD5196002B0704700BF90108450C4
:103F4000B410845038B5A0F12003B3F5426F054694
:103F50002CD88F2826D800F1470300F16604DB0631
:103F60004FEA541400D0013464013F34A4090134F1
:103F700011B1A1421AD30C464FF48050E300B0FBBC
:103F8000F3F0202828BF202002B110600122084B46
:103F900021461A60FFF710FF28462146FFF7B4FFBD
:103FA000002038BD00F11F046409DDE70148F8E78F
:103FB0001C1884502221F000464BF0B51D4689B0F4
:103FC0001C680194019CE407FAD5434B0024134478
:103FD0009B001A680B181E2B88BFC0F11E011F32F0
:103FE0000B1852095343B3F5806F84BF4FF48061BF
:103FF000B1FBF2F1274688BF091ADFF8E4E000F1CF
:10400000A150DFF8E0C000F58230A14233DC2B681C
:104010000493049BDB07FAD5304B1B682968059194
:104020000599CF07FAD52E4C2E49236000231E4652
:10403000934203F1010040D11946002620F001020D
:1040400028488A423CD8296806910699CE07FAD5B5
:1040500025490968286807900798C007FAD52160A4
:1040600000210C461F488B422DD100201D499A4249
:104070002CD809B0F0BD2B680293029BDB07FAD560
:1040800003199B001B682E680396039EF607FAD55A
:10409000CEF800300023934203F1010306D1164607
:1040A00023F00103B34204D80134AEE7CCF800702A
:1040B000F1E7CCF800700136F4E70E600346B7E78D
:1040C00006600131BDE704600131CCE708600133CF
:1040D000CDE700BFB4108450240421147C10845018
:1040E000D4108450D81084507810845008B540B152
:1040F000202801464FF0070228BF20210020FFF7AB
:104100005BFF0022014B1A6008BD00BF1C188450E1
:10411000F0B5294D85B02C462E680096009EF60716
:10412000FAD500F1A15000F58230800005682068C2
:1041300001900198C707FAD52048214F056002EB8E
:104140008306B24229D100275A1C1D4E22F00102DB
:104150009A4227D823680293029BDE07FAD5194BAF
:104160000B449B001B681F335B099A4213D22168E2
:1041700003910399C907FAD5002115440560084643
:104180009B1A0F4A8B4210D800205A1C0C4922F06F
:1041900001029A420CD805B0F0BD52F804CBC7F822
:1041A00000C0CEE737600133D2E710600131E9E7A4
:1041B00008600133EDE700BFB4108450D410845080
:1041C000D8108450240421142DE9F041814BA0B073
:1041D0001D68986820331E461A680192019AD70715
:1041E000FAD57D4B7D4A1A6032680292029AD40752
:1041F000FAD57B4A1A607B4A1446116803910399E9
:10420000C907FAD5784A1168C1F340213768049785
:10421000049FFF07FAD5754F1F6027680597059F14
:10422000FF07FAD51768002900F0CF80B90540F1E3
:10423000CC80316806910699CF07FAD56C49196090
:10424000216807910799C907FAD51168C1F3402180
:1042500037680897089FFF07FAD5664F1F602768E1
:104260000997099FFF07FAD51268002900F0AF806F
:10427000910540F1AC8032680A920A9AD207FAD5C9
:10428000564A1A6032680B920B9AD707FAD55A4AE7
:104290001A6031680C910C99CC07FAD5574919600E
:1042A00031680D910D99C907FAD5554919603168E2
:1042B0000E910E99CF07FAD55249196031680F91C6
:1042C0000F99CC07FAD550491960504B1E46196812
:1042D00010911099C907FAD53F4C4D4B23603368B4
:1042E0001193119BDB07FAD54A4B23603368129375
:1042F000129BDF07FAD5484B23603A4B9846196862
:1043000013911399C907FAD5324F38603368149363
:10431000149BDB07FAD5226033681593159BD807E9
:10432000FAD53E4B236033681693169BD907FAD50E
:104330003B4B236033681793179BDA07FAD5394B49
:10434000236033681893189BDB07FAD5364B23603C
:1043500033681993199BD807FAD5344B2360336817
:104360001A931A9BD907FAD5314B236033681B93F4
:104370001B9BDA07FAD52F4B236000F01DFC08BB0E
:10438000D8F800301C931C9BDB07F9D53D603368DF
:104390001D931D9BD907FAD5274B236033681E93C5
:1043A0001E9BDA07FAD5254B2360D8F800301F93FF
:1043B0001F9BDB07F9D50C4B1B6813F4805F204B68
:1043C00008BF184620B0BDE8F0811E48FAE71E4835
:1043D000F8E700BF90108450801084500010025104
:1043E000C01F7229B410845088108450C0CF012996
:1043F000C01F0E29C03F002940010249003184A896
:1044000000001649400108A180440888B01084507B
:10441000C044708880077A41C0077E4100006A4925
:104420008006164940006E490002002100822021CA
:10443000408220218082242140A161A100C86151D5
:104440000308F1000108F1000208F100324B2DE9E8
:10445000F74F80469246994644681A68002AFCD174
:104460002E4B9B461A68002AFCD14FF0FF30019179
:1044700000F094FC802000F097FC01230720284ADC
:10448000284DA2F59E722B60C2F83C011360636A4E
:10449000254F264E3B60A36A20463360D8F8003093
:1044A00042F8043CD8F8083098470199D9F8003010
:1044B000002BFBD1BAF1000F20D104221C4B1A6053
:1044C000D9F80030002BFBD1DBF800A0BAF1000FC7
:1044D000FAD1D8F80C30204698473B6863623368BD
:1044E000A362144BC3F800A0C3F844A1D9F800306C
:1044F000002BFBD12B6003B0BDE8F08F236A402076
:10450000012B04BF0B4A13600B4B1960C3F804A0C6
:1045100000F050FCD4E700BF10198450201C8450D8
:104520000019845018188450CC178450D017845028
:10453000C817845084168450281C8450544B10B5DE
:10454000194698B01A680192019AD207FAD5514BD0
:10455000514A1A600A680292029AD407FAD54F4A61
:104560001A600A680392039AD007FAD54C4818607B
:104570000A680492049AD207FAD54A4A1A600A686D
:104580000592059AD407FAD5474A1A600A68069236
:10459000069AD207FAD5454A1A600A680792079A1E
:1045A000D407FAD5424A1A600A680892089AD207D4
:1045B000FAD5404A1A600A680992099AD407FAD5CE
:1045C0003D4A1A600A680A920A9AD207FAD53B4A0B
:1045D0001A600A680B920B9AD407FAD5384A1A6007
:1045E0000A680C920C9AD207FAD5364A1A600A6801
:1045F0000D920D9AD407FAD5334A1A600A680E92C2
:104600000E9AD207FAD5314A1A600A680F920F9AA9
:10461000D407FAD52E4A1A600A681092109AD20767
:10462000FAD52C4A1A601A4B19461C681194119C31
:10463000E407FAD5174B1860086812901298C4075F
:10464000FAD51A600A681392139AD007FAD5124A5B
:104650001A600A681492149AD207FAD51E4A1A6090
:104660000A681592159AD407FAD51C4A1A600A6886
:104670001692169AD007FAD5194A1A600A68179244
:10468000179AD207FAD5174A1A6018B010BD00BFA2
:10469000B010845080108450009365210004319044
:1046A000409665900083612100C3302100C364906F
:1046B00000816190004610210081112100414421B8
:1046C00000C320290C4610C80086312100C3602198
:1046D00040C1282940966521001331904096252934
:1046E000594614C840043249494B10B5194694B094
:1046F0001A680092009AD207FAD5464B464A1A60C9
:104700000A680192019AD407FAD5444A1A600A68E5
:104710000292029AD007FAD5414818600A680392BB
:10472000039AD207FAD53F4A1A600A680492049A9B
:10473000D407FAD53C4A1A600A680592059AD2074E
:10474000FAD53A4A1A600A680692069AD407FAD548
:10475000374A1A600A680792079AD207FAD5354A8B
:104760001A600A680892089AD407FAD5324A1A6081
:104770000A680992099AD207FAD5304A1A600A687B
:104780000A920A9AD407FAD52D4A1A600A680B923F
:104790000B9AD207FAD52B4A1A600A680C920C9A27
:1047A000D407FAD5284A1A600A680D920D9AD207E2
:1047B000FAD5264A1A600A680E920E9AD407FAD5DC
:1047C000234A1A600A680F920F9AD207FAD5214A33
:1047D0001A600F4B19461C681094109CE407FAD518
:1047E0000C4B1860086811901198C407FAD51A602C
:1047F0000A681292129AD007FAD5174A1A600A6804
:104800001392139AD207FAD5144A1A6014B010BD45
:10481000B01084508010845080906521000409906D
:1048200040966590808061218020082180206490DE
:104830000081619000461021008111210041442136
:1048400080202029024610C800860921802060218E
:10485000402128294096652140962529594614C8AB
:10486000504B10B51C4696B01A680192019AD207B7
:10487000FAD54D4B4D4A1A6022680292029AD2072D
:10488000FAD54B4A1A604B4A42EA804022680392AA
:10489000039AD207FAD5186022680492049AD007C6
:1048A000FAD5454A1A60A2F5800242EA814122689F
:1048B0000592059AD207FAD5196022680692069ADF
:1048C000D007FAD53D4A1A6022680792079AD107A5
:1048D000FAD53B4A1A6022680892089AD207FAD59C
:1048E000384A1A6022680992099AD007FAD5364ADE
:1048F0001A6022680A920A9AD107FAD5334A1A60D6
:1049000022680B920B9AD207FAD5314A1A602268B4
:104910000C920C9AD007FAD52E4A1A6022680D9292
:104920000D9AD107FAD52C4A1A6022680E920E9A77
:10493000D207FAD5294A1A6022680F920F9AD00737
:10494000FAD5274A1A60216810911099C907FAD53B
:104950001A60144B1A46196811911199C807FAD5B3
:10496000114B20491960116812911299C907FAD5A3
:104970001D491960116813911399CC07FAD50B4999
:104980001960116814911499C807FAD5174919606C
:10499000116815911599C907FAD5154A1A6016B00C
:1049A00010BD00BFB010845080108450400441906E
:1049B00000862929D81001C84014419040142129AB
:1049C000401465210034409000310C90C0400C90A0
:1049D000C030202940960D9000416090031645C8D4
:1049E0000086112100416021594644C84014459079
:1049F00040142D90264870B5054688B00468009490
:104A0000009CE607FAD5234C23480460234C44EA73
:104A100083432C680194019CE407FAD50360930159
:104A200043EA824242F0104444F4C0442B680293AB
:104A3000029BDE07FAD504602B680393039BDB0718
:104A4000FAD5174B03608B0143EA814141F01043D3
:104A500043F4C0432E680496049EF607FAD503601B
:104A60002B680593059BDE07FAD5046041F0584199
:104A70002B680693069BDC07FAD5016042F058428A
:104A80002B680793079BDB07FAD5026008B070BD5F
:104A9000B0108450C0210229801084508071009889
:104AA00080611890354B8EB019461A680092009AB2
:104AB000D207FAD5324B334A1A600A680192019A3A
:104AC000D007FAD5304A1A600A680292029AD207D1
:104AD000FAD52E4A1A600A680392039AD007FAD5CB
:104AE0002B4A1A600A680492049AD207FAD5294A16
:104AF0001A600A680592059AD007FAD5264A1A6004
:104B00000A680692069AD207FAD5244A1A600A68F9
:104B10000792079AD007FAD5214A1A600A680892C4
:104B2000089AD207FAD51F4A1A600A680992099AA8
:104B3000D007FAD51C4A1A600A680A920A9AD20764
:104B4000FAD51A4A1A6008680B900B98C007FAD574
:104B50001A600A680C920C9AD007FAD5144A1A60A7
:104B60000A680D920D9AD207FAD5124A0E211A60E0
:104B700000200D230F220EB0FFF73CBFB010845071
:104B800080108450804301294063392180700129BD
:104B90008020542100D13490C0403490C03020296E
:104BA000C0530D9000413890832308C880E3102142
:104BB00000413821CF4308C801232DE9F04192B0CC
:104BC000CDE90333624B1D461A680592059AD20758
:104BD000FAD5604B604C2360604B19461A68069208
:104BE000069AD707FAD55E4B1A68D60400F1A8805A
:104BF0002A680792079AD007FAD55A4A22600A68AB
:104C00000892089AD207FAD51E68C6F30036002E1D
:104C100040F098801220FFF7F3F807461320FFF7C3
:104C2000EFF887428CBF12201320FFF7E9F8471EE8
:104C3000FFF738FF03AB01AA39461220FFF726F928
:104C400004AB804602AA39461320FFF71FF900EB98
:104C50004800022832D003283ED0012874D12B68A6
:104C60000993099BDB07FAD53F4B23602B680A9316
:104C70000A9BD807FAD53D4B23602B680F930F9BF7
:104C8000D907FAD53A4B23602B681093109BDA07AB
:104C9000FAD5384B23602B681193119BDB07FAD5AB
:104CA000354B2360013F25D5102319221821002000
:104CB000FFF7A0FE304612B0BDE8F0812B680B93E1
:104CC0000B9BD907FAD52D4B23602B680C930C9BBB
:104CD000DA07FAD52A4BCFE72B680D930D9BDB073C
:104CE000FAD5284B23602B680E930E9BD807FAD574
:104CF000254BC1E703AB01AA39461220FFF7C6F8DE
:104D000004AB044602AA39461320FFF7BFF810EBA4
:104D1000440402D1FFF712FCC4E7FFF7E5FC022CC4
:104D200008D0032C09D0012C10D117211620FFF731
:104D300097FDB7E715211420F9E70F210E20F6E7BC
:104D4000124EB7E7124EB5E7124EB3E7124EB1E777
:104D5000B010845000084A5180108450B410845020
:104D60008810845000084E5100065A4940065E499A
:104D7000000442410014424940042E4900065249B1
:104D80004006564900063A4940063E490608F100E9
:104D90000708F1000408F1000508F100014B186054
:104DA000704700BF081A8450014B1860704700BF5D
:104DB000041A8450034A13681842FCD0024A106057
:104DC00018467047001A8450081A84502DE9F04F95
:104DD0008378154685B007469A07D0F8048040F1DD
:104DE000B580002691F800B0BBF1000F00F0B08054
:104DF000BBF1250F05D001F1010A013639465846AD
:104E000060E091F801B001F1020ABBF1250FF4D086
:104E1000002401211F2C26D8ABF12002102A10D922
:104E2000ABF13002092A37D81AF801BBBBF1000FE9
:104E3000F0D139462520C0470028C0F283800236D1
:104E4000DCE701FA02F0844B1842EDD1032A64D06A
:104E5000ABF13002092AE7D9BBF12A0F11D1043591
:104E600044F02004E0E77F2C16D8ABF13002092A89
:104E7000DAD9BBF12A0F0CD1630605F10405D3D4AE
:104E8000EEE7BBF12E0F0AD1600661D444F0400476
:104E9000CAE7BBF12E0FF7D0BBF16C0F2CD0BBF1E2
:104EA0006C0F13D8BBF1680F2DD0BBF16A0F31D056
:104EB000BBF14C0F2ED0BBF1630F0DD1013639463B
:104EC00015F8040BC047002836DA3BE0BBF1740F3D
:104ED000AAD0BBF17A0FA7D0ABF16402112A00F27D
:104EE0009080DFE802F0398E8E8E8E398E8E8E8E17
:104EF0008E98888E8E1C8E72220648BF44F40074F1
:104F000044F0800490E7E30548BF44F4007444F49F
:104F1000807489E744F4207486E7102484E72C68C1
:104F20004E4B002C08BF1C46A1464B4619F8010BFE
:104F300020B9341B04351E19514653E73946C04782
:104F40000028F2DABB7843F00403BB704FF0FF3661
:104F5000304605B0BDE8F08F20062DD5A10549BF2C
:104F6000073555F8040B25F0070555F8080B002800
:104F70000DF104094FF00A02BCBF44F480644042C2
:104F800024F01004A4B2494601F0FAFDE206A0EBB9
:104F900009094DD539463020C0470028D2DBBBF186
:104FA000000F57D0023639465846C0470028C9DBA3
:104FB0004C460DF1040B49E0E20555F8040BD6D53B
:104FC000A3054CBF40B200B2D1E724F010040A227E
:104FD000A4B2200623D5A10549BF073555F8040B17
:104FE00025F0070555F8080B10B924F01004A4B2F9
:104FF0000DF10409C7E744F0100410224FF0780BBC
:10500000E7E74BF02002782A7FF413AFCBF1780268
:1050100042F01002DDE708224FF0000BD9E7E3056C
:1050200055F8040BE0D5A1054CBFC0B280B2DBE758
:105030006305BDD5013639462D20B6E7013C39461A
:105040001BF80400C0470028FFF67CAF002CF5D108
:105050004E4471E70136ABE7812801003E7A00003B
:1050600070470020704730B500290446154685B0CA
:1050700011DB83688B420ED96368C068194401AAAA
:1050800000F028FF28B96268019B9B1A2B60029BE5
:105090006B6005B030BD6FF02100FAE770472DE975
:1050A000F7430E4617469946044628B94FF0FF3895
:1050B000404603B0BDE8F0830029F7D0002AF5D0C0
:1050C000CB680D8938461D44042329460DEB0302A5
:1050D00000F08FFD80460028E8D146F60812BDF8A2
:1050E00004107389914225D1BDF806109942DDD193
:1050F000042338460DEB0302294400F07AFD002812
:10510000D4D146F60713BDF804209A42CED1C4E9A3
:1051100000679DF82830A4F80890A3727389BDF841
:1051200006202B44E360738913442B4404356361E8
:105130002561BDE7002BE4D0B8E72DE9F3410E4629
:1051400017461D46044620B94FF0FF3002B0BDE8B7
:10515000F0810368002BF7D04368002BF4D04FF6A2
:10516000FF78D4E904239A4216D223685B8923B1DD
:10517000E368934204BF0433236104232169606818
:105180000DEB030200F035FD0028DDD1A37A2BB131
:10519000D4E903329A4201D30120D7E72389BDF82D
:1051A0000610434501F1040203D0BDF804C09C453C
:1051B0000BD115B1BDF804302B8023690433336063
:1051C0003980236913442361C0E7236913442361B1
:1051D000C7E748B103683BB143682BB1C068884258
:1051E00094BF0020012070474FF0FF3070472DE939
:1051F000F3410D46044611460223284601AA00F059
:1052000079FA064618BB019F1F2F12D92B68A7F108
:105210002002134403F1200253F8041B934244F884
:10522000041BF9D12B683B442B60304602B0BDE82B
:10523000F081C7F1200842460146204601F088FC73
:105240003A46296804EB080001F075FCEAE76FF0C4
:105250000206EAE710B5044600F00AFD00F090F8F7
:10526000A368984201D900F086FD181A10BD70B5E8
:105270000D46044601F016F82A46A0F10801042361
:105280002046BDE8704000F0B4BC13B5044601915F
:1052900001F008F80423A0F108010DEB03022046F9
:1052A00001F043F802B010BD00F0C2B901292DE9A8
:1052B000F341174601D900F05EFD2C2303FB0104E6
:1052C000D4F82080B8F1000FF5D0E3682689404675
:1052D0001E44042331460DEB030200F08AFC054610
:1052E00020B10125284602B0BDE8F08146F608133A
:1052F000BDF8042064899A421AD1BDF806309C4258
:1053000001D00325EEE7042340460DEB0302A1196B
:1053100000F06FFC0028E4D146F60713BDF8042026
:105320009A42EED1BDF80610214431443960D9E7E4
:10533000002CF1D0E5E7802213B503290346019242
:1053400008460AD15A6A03F1280401A900F0C0FCFA
:1053500008B9019B236002B010BD092903D11A6D61
:1053600003F15404F1E70120F5E710B528B1BDE8D9
:1053700010406022002101F0EBBBFBF7FBFAF6E7DF
:105380004FF4C07358433030704773B50C46054630
:10539000164600F06DFCA04203D9284600F068FCD8
:1053A00004464FF4C073A9686A46303903FB1411F0
:1053B0002846FFF758FE0028A4BF009B336002B0C8
:1053C00070BD10B41AB15DF8044BFBF7B3B91046C9
:1053D0005DF8044B7047002382681946FFF7F1BF60
:1053E00008B52C2303FB0101086A08B900F0C3FCCF
:1053F0000422BDE8084000F069BF70B513460E46B0
:105400001546002102460446FBF7EAFC50B92B463C
:105410000121204604F12C02FBF7E2FC10B1002E22
:1054200008BF002070BD00207047002110B5044661
:105430000846FAF72BFF04F12001C0B2FCF7B6F9D9
:1054400040B90121FAF722FF04F14C01C0B2FCF788
:10545000ADF908B100F08FFC10BD10B50446C06C6A
:1054600008B100F0C5FB206A18B1BDE8104000F09B
:10547000BFBB10BDFFF7FEBFFFF7FCBFFFF7FABFD2
:10548000FFF7F8BFFFF7F6BFFFF7F4BFFFF7F2BF74
:10549000FFF7F0BFFFF7EEBFFEE70123036003F164
:1054A000012343600023C0E9023370474379012B95
:1054B00007D10368012B04D10079431E584258419B
:1054C000704700207047F7B5056A074628460E4624
:1054D000FFF7C0FEF96D0446304600F096F804442C
:1054E000284600F0C5FB0746284600F0C8FB072207
:1054F00001460DF1010001F02BFB33796A468DF86E
:10550000003021463B46284600F088FB003818BF93
:10551000012003B0F0BD13B50C4601AAC16D2046B1
:10552000FFF733FF002809DB0199A2680123204619
:10553000521AFFF746FFC00F02B010BD0120FBE773
:1055400037B50C46C06C69461546FDF7E9FA0246C8
:1055500008B100F010FCE979012904D0204600F0E0
:105560003AFF0028F5D19DF80330012B04D12046E5
:1055700000F010FF0028ECD12046A968FFF785FE57
:105580000028E6D12046FDF7A9FA0028E1D103B0B2
:1055900030BD73B50C460646FBF71EFDE06028B330
:1055A000022801D1356A0DB900F0E5FB22463146EB
:1055B0002846FBF76DFCD0B9284600F073FE0123A6
:1055C00001460DF10702284600F013FB88B90122BD
:1055D00028460DF1070100F079FE10B101238DF886
:1055E00007309DF8073003F00F03E371002002B08D
:1055F00070BD0120FBE7436A00205A68034613444C
:105600008B4200F10100FAD3704710B5437902795B
:10561000012B06BF00230C46CB0102F1FF3201FB38
:105620000233026818BF4C00013A04FB023010BD7F
:1056300010B50446C06DFFF7A3FE636A5B685A1E8F
:10564000024459421140A26A013A5A43501A626D0B
:1056500053435B1A984228BF184610BD70B50368C3
:10566000CD1A002D02DC6FF05F0070BD93F9006071
:105670001C78002E0ADB5C1C04601B781360036836
:10568000C91A13688B42EED80020EEE704F07F04BD
:10569000013C032C2BD8DFE804F0020A1421012D71
:1056A000E1D05B781360036802330360E7E7022D03
:1056B000D9DDB3F801305BBA9BB2136003680333E2
:1056C000F3E7032DCFDD9C785D782402DB7844EA94
:1056D00005442343136003680433E6E7042DC2DD69
:1056E000D3F801301BBA136003680533DDE76FF0B0
:1056F0006300BAE770B404680E1B002E07DD26783D
:105700009E4208D10134046070BCFFF7A7BF6FF060
:105710005F0070BC70476FF06100FAE738B5032393
:105720000446FFF7E7FF18B9136813B96FF0670075
:1057300038BD013B136023681A78002AF6D1013383
:105740002360F5E72DE9F34190461F4601AA302377
:1057500005460E46FFF7CEFF0446F0B92B68F61A51
:10576000002E34DD42461B78284642F8043B2E6862
:10577000019B1E4431460623FFF7BCFF044660B977
:105780002B68D8F80420C8F808309918B14229606D
:1057900007D10C213846FBF7E9FD204602B0BDE8F1
:1057A000F0819B5C3A4642F8043B2B68314601335A
:1057B00028462B60FFF752FF60B92B687A68BB6000
:1057C0001344B34218BF6FF065042B60E5E76FF038
:1057D0005F04E2E70446E0E7F8B5B1F1005F054693
:1057E000144600AF10D26E46D31D23F00703ADEB75
:1057F000030D684601F09FF9694622462846FEF7E8
:1058000039FAB546BD46F8BDFEF734FAFAE710B5E9
:10581000036A0446D8688368DB689847E36CD868F5
:105820008368DB689847012010BD836800EBC101E5
:10583000B3F5004F2CBF51F8220031F81200704729
:1058400000EBC1018068B0F5004F2CBF41F8223059
:1058500021F812307047012208B5FFF7E6FFD0406B
:1058600008BD836800EBC101B3F5004F08D34B6856
:105870001AB143F001034B60704723F00103FAE7CC
:105880004B881AB143F001034B80704723F00103AA
:10589000FAE753000122FFF7D3BF8368481CB3F532
:1058A000004F34BF042308230833A0EBD300B0FA21
:1058B00080F0C0F11F0070472DE9F0410D46866869
:1058C0000446FFF7C8FFB6F5004F014601D3012893
:1058D00032D02046FFF7E1FF04EB80010E6996B954
:1058E0000122E36882401343E36002220D612B46EC
:1058F00029462046FFF7A4FF032229462046BDE89B
:10590000F041FFF79DBF022231462046FFF78DFF91
:105910000746034629462046FFF792FF03223346F7
:1059200029462046FFF78CFF39462B462046FFF7D5
:1059300087FF02223146E1E7BDE8F081B2F5802F12
:105940002CBF082304232DE9F0410026D21A8C181D
:10595000CD1D25F0070524F00704641BE40805604D
:1059600021462846AC60EE60FFF797FF421D92008B
:10597000013002F107074FEAD7073146A2F11002C2
:1059800005F11000B8BF324601F0E2F83A46314660
:105990002846FFF77EFF3346324631462846FFF75A
:1059A0004FFFA4EB0708284631460122FFF759FFB5
:1059B00042463946FFF76DFF3B4632463946284698
:1059C000FFF73EFF21462846FFF763FF4346324676
:1059D00021462846FFF734FF214628460122FFF7DB
:1059E00040FF3946BDE8F041FFF766BF0020704731
:1059F0000FB407B504A951F8040B0191FBF7B0FDF2
:105A000003B05DF804EB04B07047038B13F0070399
:105A100005D10368002B0CBF002003207047022B28
:105A200005D1408BB0FA80F0400980007047012B0F
:105A300005D10368002B0CBF002005207047002013
:105A4000704710B50C4600B111B96FF0150010BDCC
:105A5000081D00F094F80028F9D1A368032BF6D9AB
:105A6000F3E72DE9F0410D4607461946281D9046FB
:105A70001E4600F095F8044638B1334642462946A2
:105A80003846A446BDE8F0416047BDE8F08110B457
:105A9000EFF31182202484F31288BFF36F8F4161EA
:105AA0005DF8044B0121FBF773BD38B50C46054684
:105AB00058B151B10B6843B14B6833B11C2200217E
:105AC00001F046F800202C6138BD6FF01500FBE7AF
:105AD00070B505460E46FFF7B4FF041E14DBEFF366
